{
  "contractName": "Arcade",
  "abi": [
    {
      "inputs": [],
      "stateMutability": "nonpayable",
      "type": "constructor"
    },
    {
      "anonymous": false,
      "inputs": [
        {
          "indexed": false,
          "internalType": "address",
          "name": "_player",
          "type": "address"
        },
        {
          "indexed": false,
          "internalType": "bool",
          "name": "_success",
          "type": "bool"
        }
      ],
      "name": "Create",
      "type": "event"
    },
    {
      "anonymous": false,
      "inputs": [
        {
          "indexed": false,
          "internalType": "address",
          "name": "_player",
          "type": "address"
        },
        {
          "indexed": false,
          "internalType": "address",
          "name": "_roomAddress",
          "type": "address"
        },
        {
          "indexed": false,
          "internalType": "int256",
          "name": "_score",
          "type": "int256"
        },
        {
          "indexed": false,
          "internalType": "uint256",
          "name": "_wins",
          "type": "uint256"
        }
      ],
      "name": "Load",
      "type": "event"
    },
    {
      "anonymous": false,
      "inputs": [
        {
          "indexed": false,
          "internalType": "address",
          "name": "_player",
          "type": "address"
        },
        {
          "indexed": false,
          "internalType": "uint256",
          "name": "_winnings",
          "type": "uint256"
        }
      ],
      "name": "Payout",
      "type": "event"
    },
    {
      "inputs": [],
      "name": "BAM",
      "outputs": [
        {
          "internalType": "contract BAMToken",
          "name": "",
          "type": "address"
        }
      ],
      "stateMutability": "view",
      "type": "function",
      "constant": true
    },
    {
      "inputs": [],
      "name": "admin",
      "outputs": [
        {
          "internalType": "address",
          "name": "",
          "type": "address"
        }
      ],
      "stateMutability": "view",
      "type": "function",
      "constant": true
    },
    {
      "inputs": [
        {
          "internalType": "address",
          "name": "",
          "type": "address"
        }
      ],
      "name": "gameRooms",
      "outputs": [
        {
          "internalType": "address",
          "name": "",
          "type": "address"
        }
      ],
      "stateMutability": "view",
      "type": "function",
      "constant": true
    },
    {
      "inputs": [
        {
          "internalType": "uint256",
          "name": "",
          "type": "uint256"
        }
      ],
      "name": "players",
      "outputs": [
        {
          "internalType": "address",
          "name": "",
          "type": "address"
        }
      ],
      "stateMutability": "view",
      "type": "function",
      "constant": true
    },
    {
      "inputs": [],
      "name": "totalSupply",
      "outputs": [
        {
          "internalType": "uint256",
          "name": "",
          "type": "uint256"
        }
      ],
      "stateMutability": "view",
      "type": "function",
      "constant": true
    },
    {
      "inputs": [],
      "name": "createGameRoom",
      "outputs": [],
      "stateMutability": "nonpayable",
      "type": "function"
    },
    {
      "inputs": [],
      "name": "loadGameRoom",
      "outputs": [],
      "stateMutability": "nonpayable",
      "type": "function"
    },
    {
      "inputs": [
        {
          "internalType": "uint256",
          "name": "_betAmount",
          "type": "uint256"
        },
        {
          "internalType": "address",
          "name": "_player",
          "type": "address"
        }
      ],
      "name": "distributeWins",
      "outputs": [],
      "stateMutability": "nonpayable",
      "type": "function"
    },
    {
      "inputs": [
        {
          "internalType": "address",
          "name": "_player",
          "type": "address"
        }
      ],
      "name": "getPlayerScore",
      "outputs": [
        {
          "internalType": "int256",
          "name": "_score",
          "type": "int256"
        }
      ],
      "stateMutability": "view",
      "type": "function",
      "constant": true
    },
    {
      "inputs": [
        {
          "internalType": "address",
          "name": "_player",
          "type": "address"
        }
      ],
      "name": "getPlayerWins",
      "outputs": [
        {
          "internalType": "uint256",
          "name": "_wins",
          "type": "uint256"
        }
      ],
      "stateMutability": "view",
      "type": "function",
      "constant": true
    },
    {
      "inputs": [],
      "name": "getNumberOfPlayers",
      "outputs": [
        {
          "internalType": "uint256",
          "name": "_playersNumber",
          "type": "uint256"
        }
      ],
      "stateMutability": "view",
      "type": "function",
      "constant": true
    }
  ],
  "bytecode": "0x6080604052633b9aca006004553480156200001957600080fd5b5033600260006101000a81548173ffffffffffffffffffffffffffffffffffffffff021916908373ffffffffffffffffffffffffffffffffffffffff1602179055506004546040516200006c90620001a3565b620000789190620001cc565b604051809103906000f08015801562000095573d6000803e3d6000fd5b506000806101000a81548173ffffffffffffffffffffffffffffffffffffffff021916908373ffffffffffffffffffffffffffffffffffffffff16021790555060008054906101000a900473ffffffffffffffffffffffffffffffffffffffff1673ffffffffffffffffffffffffffffffffffffffff1663095ea7b3600260009054906101000a900473ffffffffffffffffffffffffffffffffffffffff166004546040518363ffffffff1660e01b8152600401620001569291906200022e565b6020604051808303816000875af115801562000176573d6000803e3d6000fd5b505050506040513d601f19601f820116820180604052508101906200019c91906200029d565b50620002cf565b611536806200270d83390190565b6000819050919050565b620001c681620001b1565b82525050565b6000602082019050620001e36000830184620001bb565b92915050565b600073ffffffffffffffffffffffffffffffffffffffff82169050919050565b60006200021682620001e9565b9050919050565b620002288162000209565b82525050565b60006040820190506200024560008301856200021d565b620002546020830184620001bb565b9392505050565b600080fd5b60008115159050919050565b620002778162000260565b81146200028357600080fd5b50565b60008151905062000297816200026c565b92915050565b600060208284031215620002b657620002b56200025b565b5b6000620002c68482850162000286565b91505092915050565b61242e80620002df6000396000f3fe60806040523480156200001157600080fd5b5060043610620000b85760003560e01c806397ca20bf116200007b57806397ca20bf1462000163578063b74ae96c146200016f578063e085c53914620001a5578063f71d96cb14620001db578063f851a4401462000211578063fd6673f5146200023357620000b8565b806308e0887714620000bd57806313b44c7314620000f357806318160ddd146200011357806338ada8ef146200013557806369957e581462000141575b600080fd5b620000db6004803603810190620000d5919062000c3e565b62000255565b604051620000ea919062000c81565b60405180910390f35b6200011160048036038101906200010b919062000cd9565b62000288565b005b6200011d620003eb565b6040516200012c919062000d31565b60405180910390f35b6200013f620003f1565b005b6200014b6200071d565b6040516200015a919062000db9565b60405180910390f35b6200016d62000741565b005b6200018d600480360381019062000187919062000c3e565b62000995565b6040516200019c919062000d31565b60405180910390f35b620001c36004803603810190620001bd919062000c3e565b62000a74565b604051620001d2919062000df1565b60405180910390f35b620001f96004803603810190620001f3919062000e0e565b62000b53565b60405162000208919062000c81565b60405180910390f35b6200021b62000b93565b6040516200022a919062000c81565b60405180910390f35b6200023d62000bb9565b6040516200024c919062000d31565b60405180910390f35b60016020528060005260406000206000915054906101000a900473ffffffffffffffffffffffffffffffffffffffff1681565b3273ffffffffffffffffffffffffffffffffffffffff163373ffffffffffffffffffffffffffffffffffffffff161415620002fa576040517f08c379a0000000000000000000000000000000000000000000000000000000008152600401620002f19062000ec7565b60405180910390fd5b60008054906101000a900473ffffffffffffffffffffffffffffffffffffffff1673ffffffffffffffffffffffffffffffffffffffff1663a9059cbb8260068562000346919062000f18565b6040518363ffffffff1660e01b81526004016200036592919062000f79565b6020604051808303816000875af115801562000385573d6000803e3d6000fd5b505050506040513d601f19601f82011682018060405250810190620003ab919062000fe3565b507f5afeca38b2064c23a692c4cf353015d80ab3ecc417b4f893f372690c11fbd9a68183604051620003df92919062000f79565b60405180910390a15050565b60045481565b33600073ffffffffffffffffffffffffffffffffffffffff16600160008373ffffffffffffffffffffffffffffffffffffffff1673ffffffffffffffffffffffffffffffffffffffff16815260200190815260200160002060009054906101000a900473ffffffffffffffffffffffffffffffffffffffff1673ffffffffffffffffffffffffffffffffffffffff161415620004c4576040517f08c379a0000000000000000000000000000000000000000000000000000000008152600401620004bb906200108b565b60405180910390fd5b6000600160003373ffffffffffffffffffffffffffffffffffffffff1673ffffffffffffffffffffffffffffffffffffffff16815260200190815260200160002060009054906101000a900473ffffffffffffffffffffffffffffffffffffffff1690507f1074e809d7f897ead6935e6c231aa569376fc008b2754223a9ea181ddbfbb8578173ffffffffffffffffffffffffffffffffffffffff166348db5f896040518163ffffffff1660e01b8152600401602060405180830381865afa15801562000595573d6000803e3d6000fd5b505050506040513d601f19601f82011682018060405250810190620005bb9190620010c4565b600160003373ffffffffffffffffffffffffffffffffffffffff1673ffffffffffffffffffffffffffffffffffffffff16815260200190815260200160002060009054906101000a900473ffffffffffffffffffffffffffffffffffffffff168373ffffffffffffffffffffffffffffffffffffffff1663efedc6696040518163ffffffff1660e01b8152600401602060405180830381865afa15801562000667573d6000803e3d6000fd5b505050506040513d601f19601f820116820180604052508101906200068d919062001127565b8473ffffffffffffffffffffffffffffffffffffffff166324de908d6040518163ffffffff1660e01b8152600401602060405180830381865afa158015620006d9573d6000803e3d6000fd5b505050506040513d601f19601f82011682018060405250810190620006ff919062001170565b604051620007119493929190620011a2565b60405180910390a15050565b60008054906101000a900473ffffffffffffffffffffffffffffffffffffffff1681565b33600073ffffffffffffffffffffffffffffffffffffffff16600160008373ffffffffffffffffffffffffffffffffffffffff1673ffffffffffffffffffffffffffffffffffffffff16815260200190815260200160002060009054906101000a900473ffffffffffffffffffffffffffffffffffffffff1673ffffffffffffffffffffffffffffffffffffffff161462000813576040517f08c379a00000000000000000000000000000000000000000000000000000000081526004016200080a9062001265565b60405180910390fd5b6000333060008054906101000a900473ffffffffffffffffffffffffffffffffffffffff16604051620008469062000bc6565b620008549392919062001287565b604051809103906000f08015801562000871573d6000803e3d6000fd5b50905080600160003373ffffffffffffffffffffffffffffffffffffffff1673ffffffffffffffffffffffffffffffffffffffff16815260200190815260200160002060006101000a81548173ffffffffffffffffffffffffffffffffffffffff021916908373ffffffffffffffffffffffffffffffffffffffff1602179055506003339080600181540180825580915050600190039060005260206000200160009091909190916101000a81548173ffffffffffffffffffffffffffffffffffffffff021916908373ffffffffffffffffffffffffffffffffffffffff1602179055507f403658646ed2a0288235d6413345dcffd164f8c3094395da89200725a7dbfb4933600160405162000989929190620012d5565b60405180910390a15050565b600080600160008473ffffffffffffffffffffffffffffffffffffffff1673ffffffffffffffffffffffffffffffffffffffff16815260200190815260200160002060009054906101000a900473ffffffffffffffffffffffffffffffffffffffff1690508073ffffffffffffffffffffffffffffffffffffffff166324de908d6040518163ffffffff1660e01b8152600401602060405180830381865afa15801562000a46573d6000803e3d6000fd5b505050506040513d601f19601f8201168201806040525081019062000a6c919062001170565b915050919050565b600080600160008473ffffffffffffffffffffffffffffffffffffffff1673ffffffffffffffffffffffffffffffffffffffff16815260200190815260200160002060009054906101000a900473ffffffffffffffffffffffffffffffffffffffff1690508073ffffffffffffffffffffffffffffffffffffffff1663efedc6696040518163ffffffff1660e01b8152600401602060405180830381865afa15801562000b25573d6000803e3d6000fd5b505050506040513d601f19601f8201168201806040525081019062000b4b919062001127565b915050919050565b6003818154811062000b6457600080fd5b906000526020600020016000915054906101000a900473ffffffffffffffffffffffffffffffffffffffff1681565b600260009054906101000a900473ffffffffffffffffffffffffffffffffffffffff1681565b6000600380549050905090565b6110f6806200130383390190565b600080fd5b600073ffffffffffffffffffffffffffffffffffffffff82169050919050565b600062000c068262000bd9565b9050919050565b62000c188162000bf9565b811462000c2457600080fd5b50565b60008135905062000c388162000c0d565b92915050565b60006020828403121562000c575762000c5662000bd4565b5b600062000c678482850162000c27565b91505092915050565b62000c7b8162000bf9565b82525050565b600060208201905062000c98600083018462000c70565b92915050565b6000819050919050565b62000cb38162000c9e565b811462000cbf57600080fd5b50565b60008135905062000cd38162000ca8565b92915050565b6000806040838503121562000cf35762000cf262000bd4565b5b600062000d038582860162000cc2565b925050602062000d168582860162000c27565b9150509250929050565b62000d2b8162000c9e565b82525050565b600060208201905062000d48600083018462000d20565b92915050565b6000819050919050565b600062000d7962000d7362000d6d8462000bd9565b62000d4e565b62000bd9565b9050919050565b600062000d8d8262000d58565b9050919050565b600062000da18262000d80565b9050919050565b62000db38162000d94565b82525050565b600060208201905062000dd0600083018462000da8565b92915050565b6000819050919050565b62000deb8162000dd6565b82525050565b600060208201905062000e08600083018462000de0565b92915050565b60006020828403121562000e275762000e2662000bd4565b5b600062000e378482850162000cc2565b91505092915050565b600082825260208201905092915050565b7f4f6e6c792044696365526f6c6c20636f6e7472616374732063616e2063616c6c60008201527f20746869732066756e6374696f6e000000000000000000000000000000000000602082015250565b600062000eaf602e8362000e40565b915062000ebc8262000e51565b604082019050919050565b6000602082019050818103600083015262000ee28162000ea0565b9050919050565b7f4e487b7100000000000000000000000000000000000000000000000000000000600052601160045260246000fd5b600062000f258262000c9e565b915062000f328362000c9e565b9250817fffffffffffffffffffffffffffffffffffffffffffffffffffffffffffffffff048311821515161562000f6e5762000f6d62000ee9565b5b828202905092915050565b600060408201905062000f90600083018562000c70565b62000f9f602083018462000d20565b9392505050565b60008115159050919050565b62000fbd8162000fa6565b811462000fc957600080fd5b50565b60008151905062000fdd8162000fb2565b92915050565b60006020828403121562000ffc5762000ffb62000bd4565b5b60006200100c8482850162000fcc565b91505092915050565b7f412067616d6520726f6f6d20666f722074686973207573657220646f6573206e60008201527f6f74206578697374000000000000000000000000000000000000000000000000602082015250565b60006200107360288362000e40565b9150620010808262001015565b604082019050919050565b60006020820190508181036000830152620010a68162001064565b9050919050565b600081519050620010be8162000c0d565b92915050565b600060208284031215620010dd57620010dc62000bd4565b5b6000620010ed84828501620010ad565b91505092915050565b620011018162000dd6565b81146200110d57600080fd5b50565b6000815190506200112181620010f6565b92915050565b60006020828403121562001140576200113f62000bd4565b5b6000620011508482850162001110565b91505092915050565b6000815190506200116a8162000ca8565b92915050565b60006020828403121562001189576200118862000bd4565b5b6000620011998482850162001159565b91505092915050565b6000608082019050620011b9600083018762000c70565b620011c8602083018662000c70565b620011d7604083018562000de0565b620011e6606083018462000d20565b95945050505050565b7f412067616d6520726f6f6d20666f722074686973207573657220616c7265616460008201527f7920657869737473000000000000000000000000000000000000000000000000602082015250565b60006200124d60288362000e40565b91506200125a82620011ef565b604082019050919050565b6000602082019050818103600083015262001280816200123e565b9050919050565b60006060820190506200129e600083018662000c70565b620012ad602083018562000c70565b620012bc604083018462000c70565b949350505050565b620012cf8162000fa6565b82525050565b6000604082019050620012ec600083018562000c70565b620012fb6020830184620012c4565b939250505056fe60806040523480156200001157600080fd5b50604051620010f6380380620010f683398181016040528101906200003791906200017c565b826000806101000a81548173ffffffffffffffffffffffffffffffffffffffff021916908373ffffffffffffffffffffffffffffffffffffffff16021790555081600160006101000a81548173ffffffffffffffffffffffffffffffffffffffff021916908373ffffffffffffffffffffffffffffffffffffffff1602179055506000600281905550600060038190555080600460006101000a81548173ffffffffffffffffffffffffffffffffffffffff021916908373ffffffffffffffffffffffffffffffffffffffff160217905550505050620001d8565b600080fd5b600073ffffffffffffffffffffffffffffffffffffffff82169050919050565b6000620001448262000117565b9050919050565b620001568162000137565b81146200016257600080fd5b50565b60008151905062000176816200014b565b92915050565b60008060006060848603121562000198576200019762000112565b5b6000620001a88682870162000165565b9350506020620001bb8682870162000165565b9250506040620001ce8682870162000165565b9150509250925092565b610f0e80620001e86000396000f3fe608060405234801561001057600080fd5b50600436106100575760003560e01c806324de908d1461005c57806348db5f891461007a57806369957e58146100985780636ffcc719146100b6578063efedc669146100e6575b600080fd5b610064610104565b6040516100719190610684565b60405180910390f35b61008261010a565b60405161008f91906106e0565b60405180910390f35b6100a061012e565b6040516100ad919061075a565b60405180910390f35b6100d060048036038101906100cb91906107a6565b610154565b6040516100dd9190610801565b60405180910390f35b6100ee6105f3565b6040516100fb9190610835565b60405180910390f35b60035481565b60008054906101000a900473ffffffffffffffffffffffffffffffffffffffff1681565b600460009054906101000a900473ffffffffffffffffffffffffffffffffffffffff1681565b60008060009054906101000a900473ffffffffffffffffffffffffffffffffffffffff1673ffffffffffffffffffffffffffffffffffffffff163373ffffffffffffffffffffffffffffffffffffffff16146101e5576040517f08c379a00000000000000000000000000000000000000000000000000000000081526004016101dc906108d3565b60405180910390fd5b81600181101580156101f8575060068111155b610237576040517f08c379a000000000000000000000000000000000000000000000000000000000815260040161022e9061093f565b60405180910390fd5b83600181101561027c576040517f08c379a0000000000000000000000000000000000000000000000000000000008152600401610273906109ab565b60405180910390fd5b600f8111156102c0576040517f08c379a00000000000000000000000000000000000000000000000000000000081526004016102b790610a17565b60405180910390fd5b6000600460009054906101000a900473ffffffffffffffffffffffffffffffffffffffff1673ffffffffffffffffffffffffffffffffffffffff166370a08231600160009054906101000a900473ffffffffffffffffffffffffffffffffffffffff166040518263ffffffff1660e01b815260040161033f91906106e0565b602060405180830381865afa15801561035c573d6000803e3d6000fd5b505050506040513d601f19601f820116820180604052508101906103809190610a4c565b9050808611156103c5576040517f08c379a00000000000000000000000000000000000000000000000000000000081526004016103bc90610aeb565b60405180910390fd5b600460009054906101000a900473ffffffffffffffffffffffffffffffffffffffff1673ffffffffffffffffffffffffffffffffffffffff166323b872dd33600160009054906101000a900473ffffffffffffffffffffffffffffffffffffffff16896040518463ffffffff1660e01b815260040161044693929190610b0b565b6020604051808303816000875af1158015610465573d6000803e3d6000fd5b505050506040513d601f19601f820116820180604052508101906104899190610b6e565b5060006104946105f9565b905080861415610566576000600160009054906101000a900473ffffffffffffffffffffffffffffffffffffffff1690508073ffffffffffffffffffffffffffffffffffffffff166313b44c7389336040518363ffffffff1660e01b8152600401610500929190610b9b565b600060405180830381600087803b15801561051a57600080fd5b505af115801561052e573d6000803e3d6000fd5b5050505060016003546105419190610bf3565b60038190555087600260008282546105599190610c49565b9250508190555050610580565b86600260008282546105789190610cdd565b925050819055505b7fd5676d95f26feb656a624882fbee761a6260087ea257f168bdb735ca3d2af0c260008054906101000a900473ffffffffffffffffffffffffffffffffffffffff1687838a6002546003546040516105dd96959493929190610d71565b60405180910390a1600194505050505092915050565b60025481565b600080444260008054906101000a900473ffffffffffffffffffffffffffffffffffffffff1660405160200161063193929190610e3b565b6040516020818303038152906040528051906020012060001c9050600160068261065b9190610ea7565b6106659190610bf3565b91505090565b6000819050919050565b61067e8161066b565b82525050565b60006020820190506106996000830184610675565b92915050565b600073ffffffffffffffffffffffffffffffffffffffff82169050919050565b60006106ca8261069f565b9050919050565b6106da816106bf565b82525050565b60006020820190506106f560008301846106d1565b92915050565b6000819050919050565b600061072061071b6107168461069f565b6106fb565b61069f565b9050919050565b600061073282610705565b9050919050565b600061074482610727565b9050919050565b61075481610739565b82525050565b600060208201905061076f600083018461074b565b92915050565b600080fd5b6107838161066b565b811461078e57600080fd5b50565b6000813590506107a08161077a565b92915050565b600080604083850312156107bd576107bc610775565b5b60006107cb85828601610791565b92505060206107dc85828601610791565b9150509250929050565b60008115159050919050565b6107fb816107e6565b82525050565b600060208201905061081660008301846107f2565b92915050565b6000819050919050565b61082f8161081c565b82525050565b600060208201905061084a6000830184610826565b92915050565b600082825260208201905092915050565b7f6f6e6c792074686520706c617965722063616e2063616c6c207468697320667560008201527f6e6374696f6e0000000000000000000000000000000000000000000000000000602082015250565b60006108bd602683610850565b91506108c882610861565b604082019050919050565b600060208201905081810360008301526108ec816108b0565b9050919050565b7f7069636b6564206e756d62657220697320696e76616c69640000000000000000600082015250565b6000610929601883610850565b9150610934826108f3565b602082019050919050565b600060208201905081810360008301526109588161091c565b9050919050565b7f4d696e696d756d2062657420697320312042414d000000000000000000000000600082015250565b6000610995601483610850565b91506109a08261095f565b602082019050919050565b600060208201905081810360008301526109c481610988565b9050919050565b7f4d6178696d756d206265742069732031352042414d0000000000000000000000600082015250565b6000610a01601583610850565b9150610a0c826109cb565b602082019050919050565b60006020820190508181036000830152610a30816109f4565b9050919050565b600081519050610a468161077a565b92915050565b600060208284031215610a6257610a61610775565b5b6000610a7084828501610a37565b91505092915050565b7f536f7272792c206e6f7420656e6f75676820746f6b656e7320696e207468652060008201527f7265736572766500000000000000000000000000000000000000000000000000602082015250565b6000610ad5602783610850565b9150610ae082610a79565b604082019050919050565b60006020820190508181036000830152610b0481610ac8565b9050919050565b6000606082019050610b2060008301866106d1565b610b2d60208301856106d1565b610b3a6040830184610675565b949350505050565b610b4b816107e6565b8114610b5657600080fd5b50565b600081519050610b6881610b42565b92915050565b600060208284031215610b8457610b83610775565b5b6000610b9284828501610b59565b91505092915050565b6000604082019050610bb06000830185610675565b610bbd60208301846106d1565b9392505050565b7f4e487b7100000000000000000000000000000000000000000000000000000000600052601160045260246000fd5b6000610bfe8261066b565b9150610c098361066b565b9250827fffffffffffffffffffffffffffffffffffffffffffffffffffffffffffffffff03821115610c3e57610c3d610bc4565b5b828201905092915050565b6000610c548261081c565b9150610c5f8361081c565b9250817f7fffffffffffffffffffffffffffffffffffffffffffffffffffffffffffffff03831360008312151615610c9a57610c99610bc4565b5b817f8000000000000000000000000000000000000000000000000000000000000000038312600083121615610cd257610cd1610bc4565b5b828201905092915050565b6000610ce88261081c565b9150610cf38361081c565b9250827f800000000000000000000000000000000000000000000000000000000000000001821260008412151615610d2e57610d2d610bc4565b5b827f7fffffffffffffffffffffffffffffffffffffffffffffffffffffffffffffff018213600084121615610d6657610d65610bc4565b5b828203905092915050565b600060c082019050610d8660008301896106d1565b610d936020830188610675565b610da06040830187610675565b610dad6060830186610675565b610dba6080830185610826565b610dc760a0830184610675565b979650505050505050565b6000819050919050565b610ded610de88261066b565b610dd2565b82525050565b60008160601b9050919050565b6000610e0b82610df3565b9050919050565b6000610e1d82610e00565b9050919050565b610e35610e30826106bf565b610e12565b82525050565b6000610e478286610ddc565b602082019150610e578285610ddc565b602082019150610e678284610e24565b601482019150819050949350505050565b7f4e487b7100000000000000000000000000000000000000000000000000000000600052601260045260246000fd5b6000610eb28261066b565b9150610ebd8361066b565b925082610ecd57610ecc610e78565b5b82820690509291505056fea26469706673582212208753ec09e0c11713ba0690948dda1502097849ce9210972bd737d7dbdd3e338464736f6c634300080b0033a26469706673582212202f0550db5642aa35b711000b839bf078d6ebfffd3ca8d7f63235ebd0ec1c0f8564736f6c634300080b00336080604052633b9aca006000553480156200001957600080fd5b50604051620015363803806200153683398181016040528101906200003f919062000112565b8060008190555080600160003373ffffffffffffffffffffffffffffffffffffffff1673ffffffffffffffffffffffffffffffffffffffff1681526020019081526020016000208190555033600360006101000a81548173ffffffffffffffffffffffffffffffffffffffff021916908373ffffffffffffffffffffffffffffffffffffffff1602179055505062000144565b600080fd5b6000819050919050565b620000ec81620000d7565b8114620000f857600080fd5b50565b6000815190506200010c81620000e1565b92915050565b6000602082840312156200012b576200012a620000d2565b5b60006200013b84828501620000fb565b91505092915050565b6113e280620001546000396000f3fe608060405234801561001057600080fd5b50600436106100b45760003560e01c806370a082311161007157806370a082311461019157806379cc6790146101c157806395d89b41146101dd578063a9059cbb146101fb578063dd62ed3e1461022b578063ea38712d1461025b576100b4565b806306fdde03146100b9578063095ea7b3146100d757806313cfc1721461010757806318160ddd1461012557806323b872dd14610143578063313ce56714610173575b600080fd5b6100c1610279565b6040516100ce9190610ccf565b60405180910390f35b6100f160048036038101906100ec9190610d8a565b6102b6565b6040516100fe9190610de5565b60405180910390f35b61010f6102cd565b60405161011c9190610e0f565b60405180910390f35b61012d610343565b60405161013a9190610e0f565b60405180910390f35b61015d60048036038101906101589190610e2a565b61034c565b60405161016a9190610de5565b60405180910390f35b61017b61045d565b6040516101889190610e99565b60405180910390f35b6101ab60048036038101906101a69190610eb4565b610466565b6040516101b89190610e0f565b60405180910390f35b6101db60048036038101906101d69190610d8a565b6104af565b005b6101e56106b9565b6040516101f29190610ccf565b60405180910390f35b61021560048036038101906102109190610d8a565b6106f6565b6040516102229190610de5565b60405180910390f35b61024560048036038101906102409190610ee1565b61070d565b6040516102529190610e0f565b60405180910390f35b610263610794565b6040516102709190610e0f565b60405180910390f35b60606040518060400160405280600981526020017f42414d20546f6b656e0000000000000000000000000000000000000000000000815250905090565b60006102c33384846107fd565b6001905092915050565b600060016000600360009054906101000a900473ffffffffffffffffffffffffffffffffffffffff1673ffffffffffffffffffffffffffffffffffffffff1673ffffffffffffffffffffffffffffffffffffffff1681526020019081526020016000205460005461033e9190610f50565b905090565b60008054905090565b600080600260008673ffffffffffffffffffffffffffffffffffffffff1673ffffffffffffffffffffffffffffffffffffffff16815260200190815260200160002060003373ffffffffffffffffffffffffffffffffffffffff1673ffffffffffffffffffffffffffffffffffffffff1681526020019081526020016000205490507fffffffffffffffffffffffffffffffffffffffffffffffffffffffffffffffff81146104465782811015610438576040517f08c379a000000000000000000000000000000000000000000000000000000000815260040161042f90610ff6565b60405180910390fd5b61044585338584036107fd565b5b6104518585856109c8565b60019150509392505050565b60006012905090565b6000600160008373ffffffffffffffffffffffffffffffffffffffff1673ffffffffffffffffffffffffffffffffffffffff168152602001908152602001600020549050919050565b600360009054906101000a900473ffffffffffffffffffffffffffffffffffffffff1673ffffffffffffffffffffffffffffffffffffffff163373ffffffffffffffffffffffffffffffffffffffff161461053f576040517f08c379a000000000000000000000000000000000000000000000000000000000815260040161053690611088565b60405180910390fd5b80600160008473ffffffffffffffffffffffffffffffffffffffff1673ffffffffffffffffffffffffffffffffffffffff1681526020019081526020016000205410156105c1576040517f08c379a00000000000000000000000000000000000000000000000000000000081526004016105b8906110f4565b60405180910390fd5b80600160008473ffffffffffffffffffffffffffffffffffffffff1673ffffffffffffffffffffffffffffffffffffffff1681526020019081526020016000205461060c9190610f50565b600160008473ffffffffffffffffffffffffffffffffffffffff1673ffffffffffffffffffffffffffffffffffffffff16815260200190815260200160002081905550600073ffffffffffffffffffffffffffffffffffffffff168273ffffffffffffffffffffffffffffffffffffffff167fddf252ad1be2c89b69c2b068fc378daa952ba7f163c4a11628f55a4df523b3ef836040516106ad9190610e0f565b60405180910390a35050565b60606040518060400160405280600381526020017f42414d0000000000000000000000000000000000000000000000000000000000815250905090565b60006107033384846109c8565b6001905092915050565b6000600260008473ffffffffffffffffffffffffffffffffffffffff1673ffffffffffffffffffffffffffffffffffffffff16815260200190815260200160002060008373ffffffffffffffffffffffffffffffffffffffff1673ffffffffffffffffffffffffffffffffffffffff16815260200190815260200160002054905092915050565b600060016000600360009054906101000a900473ffffffffffffffffffffffffffffffffffffffff1673ffffffffffffffffffffffffffffffffffffffff1673ffffffffffffffffffffffffffffffffffffffff16815260200190815260200160002054905090565b600073ffffffffffffffffffffffffffffffffffffffff168373ffffffffffffffffffffffffffffffffffffffff16141561086d576040517f08c379a000000000000000000000000000000000000000000000000000000000815260040161086490611160565b60405180910390fd5b600073ffffffffffffffffffffffffffffffffffffffff168273ffffffffffffffffffffffffffffffffffffffff1614156108dd576040517f08c379a00000000000000000000000000000000000000000000000000000000081526004016108d4906111cc565b60405180910390fd5b80600260008573ffffffffffffffffffffffffffffffffffffffff1673ffffffffffffffffffffffffffffffffffffffff16815260200190815260200160002060008473ffffffffffffffffffffffffffffffffffffffff1673ffffffffffffffffffffffffffffffffffffffff168152602001908152602001600020819055508173ffffffffffffffffffffffffffffffffffffffff168373ffffffffffffffffffffffffffffffffffffffff167f8c5be1e5ebec7d5bd14f71427d1e84f3dd0314c0f7b2291e5b200ac8c7c3b925836040516109bb9190610e0f565b60405180910390a3505050565b600073ffffffffffffffffffffffffffffffffffffffff168373ffffffffffffffffffffffffffffffffffffffff161415610a38576040517f08c379a0000000000000000000000000000000000000000000000000000000008152600401610a2f90611238565b60405180910390fd5b600073ffffffffffffffffffffffffffffffffffffffff168273ffffffffffffffffffffffffffffffffffffffff161415610aa8576040517f08c379a0000000000000000000000000000000000000000000000000000000008152600401610a9f906112a4565b60405180910390fd5b6000600160008573ffffffffffffffffffffffffffffffffffffffff1673ffffffffffffffffffffffffffffffffffffffff16815260200190815260200160002054905081811015610b2f576040517f08c379a0000000000000000000000000000000000000000000000000000000008152600401610b2690611336565b60405180910390fd5b818103600160008673ffffffffffffffffffffffffffffffffffffffff1673ffffffffffffffffffffffffffffffffffffffff1681526020019081526020016000208190555081600160008573ffffffffffffffffffffffffffffffffffffffff1673ffffffffffffffffffffffffffffffffffffffff1681526020019081526020016000206000828254610bc49190611356565b925050819055508273ffffffffffffffffffffffffffffffffffffffff168473ffffffffffffffffffffffffffffffffffffffff167fddf252ad1be2c89b69c2b068fc378daa952ba7f163c4a11628f55a4df523b3ef84604051610c289190610e0f565b60405180910390a350505050565b600081519050919050565b600082825260208201905092915050565b60005b83811015610c70578082015181840152602081019050610c55565b83811115610c7f576000848401525b50505050565b6000601f19601f8301169050919050565b6000610ca182610c36565b610cab8185610c41565b9350610cbb818560208601610c52565b610cc481610c85565b840191505092915050565b60006020820190508181036000830152610ce98184610c96565b905092915050565b600080fd5b600073ffffffffffffffffffffffffffffffffffffffff82169050919050565b6000610d2182610cf6565b9050919050565b610d3181610d16565b8114610d3c57600080fd5b50565b600081359050610d4e81610d28565b92915050565b6000819050919050565b610d6781610d54565b8114610d7257600080fd5b50565b600081359050610d8481610d5e565b92915050565b60008060408385031215610da157610da0610cf1565b5b6000610daf85828601610d3f565b9250506020610dc085828601610d75565b9150509250929050565b60008115159050919050565b610ddf81610dca565b82525050565b6000602082019050610dfa6000830184610dd6565b92915050565b610e0981610d54565b82525050565b6000602082019050610e246000830184610e00565b92915050565b600080600060608486031215610e4357610e42610cf1565b5b6000610e5186828701610d3f565b9350506020610e6286828701610d3f565b9250506040610e7386828701610d75565b9150509250925092565b600060ff82169050919050565b610e9381610e7d565b82525050565b6000602082019050610eae6000830184610e8a565b92915050565b600060208284031215610eca57610ec9610cf1565b5b6000610ed884828501610d3f565b91505092915050565b60008060408385031215610ef857610ef7610cf1565b5b6000610f0685828601610d3f565b9250506020610f1785828601610d3f565b9150509250929050565b7f4e487b7100000000000000000000000000000000000000000000000000000000600052601160045260246000fd5b6000610f5b82610d54565b9150610f6683610d54565b925082821015610f7957610f78610f21565b5b828203905092915050565b7f5472616e7366657220616d6f756e74206578636565647320616c6c6f77616e6360008201527f6500000000000000000000000000000000000000000000000000000000000000602082015250565b6000610fe0602183610c41565b9150610feb82610f84565b604082019050919050565b6000602082019050818103600083015261100f81610fd3565b9050919050565b7f596f75206d75737420626520746865206f776e6572206f66207468697320746f60008201527f6b656e20746f206275726e20746f6b656e732e00000000000000000000000000602082015250565b6000611072603383610c41565b915061107d82611016565b604082019050919050565b600060208201905081810360008301526110a181611065565b9050919050565b7f596f7520646f206e6f74206861766520656e6f75676820746f6b656e732e0000600082015250565b60006110de601e83610c41565b91506110e9826110a8565b602082019050919050565b6000602082019050818103600083015261110d816110d1565b9050919050565b7f417070726f76652066726f6d20746865207a65726f2061646472657373000000600082015250565b600061114a601d83610c41565b915061115582611114565b602082019050919050565b600060208201905081810360008301526111798161113d565b9050919050565b7f417070726f766520746f20746865207a65726f20616464726573730000000000600082015250565b60006111b6601b83610c41565b91506111c182611180565b602082019050919050565b600060208201905081810360008301526111e5816111a9565b9050919050565b7f5472616e736665722066726f6d20746865207a65726f20616464726573730000600082015250565b6000611222601e83610c41565b915061122d826111ec565b602082019050919050565b6000602082019050818103600083015261125181611215565b9050919050565b7f5472616e7366657220746f20746865207a65726f206164647265737300000000600082015250565b600061128e601c83610c41565b915061129982611258565b602082019050919050565b600060208201905081810360008301526112bd81611281565b9050919050565b7f5472616e7366657220616d6f756e742065786365656473206163636f756e742060008201527f62616c616e636500000000000000000000000000000000000000000000000000602082015250565b6000611320602783610c41565b915061132b826112c4565b604082019050919050565b6000602082019050818103600083015261134f81611313565b9050919050565b600061136182610d54565b915061136c83610d54565b9250827fffffffffffffffffffffffffffffffffffffffffffffffffffffffffffffffff038211156113a1576113a0610f21565b5b82820190509291505056fea2646970667358221220c7f797249de02caed29c45fa9480ce618638df47747361e106f21c7d6c8d137c64736f6c634300080b0033",
  "immutableReferences": {},
  "source": "// SPDX-License-Identifier: MIT\npragma solidity >=0.4.22 <0.9.0;\n\nimport \"./DiceRoll.sol\"; \nimport \"./token/BAMToken.sol\";\n\ncontract Arcade {\n\n    // will take up 4 storage slots\n    BAMToken public BAM; \n    mapping(address => address) public gameRooms;  \n    address public admin; \n    address[] public players;\n    uint256 public totalSupply = 1000000000;\n\n    constructor() {\n        admin = msg.sender; \n        BAM = new BAMToken(totalSupply); // deploying BAMToken and getting all the supply in the Arcade contract\n        BAM.approve(admin, totalSupply); // ATTENTION: this does not imply admin has infinite control - but just enough allowance for totalSupply\n    }\n\n    modifier adminOnly {\n        require(msg.sender  == admin); \n        _; \n    }\n\n    modifier doesNotExist(address _player) {\n        require(gameRooms[_player] == address(0), \"A game room for this user already exists\"); \n        _; \n    }\n\n    modifier doesExist(address _player) {\n        require(gameRooms[_player] != address(0), \"A game room for this user does not exist\"); \n        _; \n    }\n\n    event Create(\n        address _player, \n        bool _success\n    ); \n\n    event Load(\n        address _player,\n        address _roomAddress,\n        int256 _score, \n        uint256 _wins\n    );\n\n    event Payout(\n        address _player,\n        uint256 _winnings\n    );\n\n    // create a game room specific to a given player\n    function createGameRoom() public doesNotExist(msg.sender) {\n        DiceRoll gameRoom = new DiceRoll(msg.sender, address(this), address(BAM)); \n        gameRooms[msg.sender] = address(gameRoom);\n        players.push(msg.sender); \n\n        emit Create(msg.sender, true);\n    }\n\n    // load a game room specific to a given player\n    function loadGameRoom() public doesExist(msg.sender) {\n        DiceRoll diceRollObject = DiceRoll(gameRooms[msg.sender]); \n\n        emit Load(diceRollObject.player(), gameRooms[msg.sender], diceRollObject.score(), diceRollObject.wins()); \n    }\n\n    function distributeWins(uint256 _betAmount, address _player) public {\n        // require that the caller be a diceroll contract to avoid fraud\n        // TODO : check if we can make SURE that the caller is a DiceRoll contract, and not just any contract (safer this way) --> tx.origin here is the diceroll contract and the msg.sender is the arcade contract, so what you can do is check if tx.origin == gamerooms(player) => I guess that's what you are trying to do\n        require(msg.sender != tx.origin, \"Only DiceRoll contracts can call this function\"); \n        BAM.transfer(_player, _betAmount * 6);\n\n        emit Payout(_player, _betAmount);\n    }\n    \n    function getPlayerScore(address _player) public view returns (int256 _score) {\n        DiceRoll _gameRoom = DiceRoll(gameRooms[_player]); \n\n        return _gameRoom.score(); \n    }\n    \n    function getPlayerWins(address _player) public view returns (uint256 _wins) {\n        DiceRoll _gameRoom = DiceRoll(gameRooms[_player]); \n\n        return _gameRoom.wins(); \n    }\n\n    function getNumberOfPlayers() public view returns (uint256 _playersNumber) {\n        return players.length; \n    } \n    \n}",
  "sourcePath": "/Users/josephhansbouassaf/Desktop/BAM-projects/dev-project-2022/dev-arcade/backend/contracts/Arcade.sol",
  "compiler": {
    "name": "solc",
    "version": "0.8.11+commit.d7f03943.Emscripten.clang"
  },
  "schemaVersion": "3.4.4",
  "updatedAt": "2022-05-07T19:04:54.056Z",
  "networkType": "ethereum",
  "devdoc": {
    "kind": "dev",
    "methods": {},
    "version": 1
  },
  "userdoc": {
    "kind": "user",
    "methods": {},
    "version": 1
  }
}