{
  "contractName": "BAMToken",
  "abi": [
    {
      "inputs": [
        {
          "internalType": "uint256",
          "name": "_initialSupply",
          "type": "uint256"
        }
      ],
      "stateMutability": "nonpayable",
      "type": "constructor"
    },
    {
      "anonymous": false,
      "inputs": [
        {
          "indexed": true,
          "internalType": "address",
          "name": "owner",
          "type": "address"
        },
        {
          "indexed": true,
          "internalType": "address",
          "name": "spender",
          "type": "address"
        },
        {
          "indexed": false,
          "internalType": "uint256",
          "name": "value",
          "type": "uint256"
        }
      ],
      "name": "Approval",
      "type": "event"
    },
    {
      "anonymous": false,
      "inputs": [
        {
          "indexed": true,
          "internalType": "address",
          "name": "from",
          "type": "address"
        },
        {
          "indexed": true,
          "internalType": "address",
          "name": "to",
          "type": "address"
        },
        {
          "indexed": false,
          "internalType": "uint256",
          "name": "value",
          "type": "uint256"
        }
      ],
      "name": "Transfer",
      "type": "event"
    },
    {
      "inputs": [],
      "name": "name",
      "outputs": [
        {
          "internalType": "string",
          "name": "",
          "type": "string"
        }
      ],
      "stateMutability": "view",
      "type": "function"
    },
    {
      "inputs": [],
      "name": "symbol",
      "outputs": [
        {
          "internalType": "string",
          "name": "",
          "type": "string"
        }
      ],
      "stateMutability": "view",
      "type": "function"
    },
    {
      "inputs": [],
      "name": "decimals",
      "outputs": [
        {
          "internalType": "uint8",
          "name": "",
          "type": "uint8"
        }
      ],
      "stateMutability": "view",
      "type": "function"
    },
    {
      "inputs": [],
      "name": "totalSupply",
      "outputs": [
        {
          "internalType": "uint256",
          "name": "",
          "type": "uint256"
        }
      ],
      "stateMutability": "view",
      "type": "function"
    },
    {
      "inputs": [
        {
          "internalType": "address",
          "name": "account",
          "type": "address"
        }
      ],
      "name": "balanceOf",
      "outputs": [
        {
          "internalType": "uint256",
          "name": "",
          "type": "uint256"
        }
      ],
      "stateMutability": "view",
      "type": "function"
    },
    {
      "inputs": [
        {
          "internalType": "address",
          "name": "recipient",
          "type": "address"
        },
        {
          "internalType": "uint256",
          "name": "amount",
          "type": "uint256"
        }
      ],
      "name": "transfer",
      "outputs": [
        {
          "internalType": "bool",
          "name": "",
          "type": "bool"
        }
      ],
      "stateMutability": "nonpayable",
      "type": "function"
    },
    {
      "inputs": [
        {
          "internalType": "address",
          "name": "owner",
          "type": "address"
        },
        {
          "internalType": "address",
          "name": "spender",
          "type": "address"
        }
      ],
      "name": "allowance",
      "outputs": [
        {
          "internalType": "uint256",
          "name": "",
          "type": "uint256"
        }
      ],
      "stateMutability": "view",
      "type": "function"
    },
    {
      "inputs": [
        {
          "internalType": "address",
          "name": "spender",
          "type": "address"
        },
        {
          "internalType": "uint256",
          "name": "amount",
          "type": "uint256"
        }
      ],
      "name": "approve",
      "outputs": [
        {
          "internalType": "bool",
          "name": "",
          "type": "bool"
        }
      ],
      "stateMutability": "nonpayable",
      "type": "function"
    },
    {
      "inputs": [
        {
          "internalType": "address",
          "name": "sender",
          "type": "address"
        },
        {
          "internalType": "address",
          "name": "recipient",
          "type": "address"
        },
        {
          "internalType": "uint256",
          "name": "amount",
          "type": "uint256"
        }
      ],
      "name": "transferFrom",
      "outputs": [
        {
          "internalType": "bool",
          "name": "",
          "type": "bool"
        }
      ],
      "stateMutability": "nonpayable",
      "type": "function"
    },
    {
      "inputs": [],
      "name": "getInReserve",
      "outputs": [
        {
          "internalType": "uint256",
          "name": "",
          "type": "uint256"
        }
      ],
      "stateMutability": "view",
      "type": "function"
    },
    {
      "inputs": [],
      "name": "getInCirculation",
      "outputs": [
        {
          "internalType": "uint256",
          "name": "",
          "type": "uint256"
        }
      ],
      "stateMutability": "view",
      "type": "function"
    },
    {
      "inputs": [
        {
          "internalType": "address",
          "name": "burner",
          "type": "address"
        },
        {
          "internalType": "uint256",
          "name": "amount",
          "type": "uint256"
        }
      ],
      "name": "burnFrom",
      "outputs": [],
      "stateMutability": "nonpayable",
      "type": "function"
    }
  ],
  "bytecode": "0x6080604052633b9aca006000553480156200001957600080fd5b50604051620015363803806200153683398181016040528101906200003f919062000112565b8060008190555080600160003373ffffffffffffffffffffffffffffffffffffffff1673ffffffffffffffffffffffffffffffffffffffff1681526020019081526020016000208190555033600360006101000a81548173ffffffffffffffffffffffffffffffffffffffff021916908373ffffffffffffffffffffffffffffffffffffffff1602179055505062000144565b600080fd5b6000819050919050565b620000ec81620000d7565b8114620000f857600080fd5b50565b6000815190506200010c81620000e1565b92915050565b6000602082840312156200012b576200012a620000d2565b5b60006200013b84828501620000fb565b91505092915050565b6113e280620001546000396000f3fe608060405234801561001057600080fd5b50600436106100b45760003560e01c806370a082311161007157806370a082311461019157806379cc6790146101c157806395d89b41146101dd578063a9059cbb146101fb578063dd62ed3e1461022b578063ea38712d1461025b576100b4565b806306fdde03146100b9578063095ea7b3146100d757806313cfc1721461010757806318160ddd1461012557806323b872dd14610143578063313ce56714610173575b600080fd5b6100c1610279565b6040516100ce9190610ccf565b60405180910390f35b6100f160048036038101906100ec9190610d8a565b6102b6565b6040516100fe9190610de5565b60405180910390f35b61010f6102cd565b60405161011c9190610e0f565b60405180910390f35b61012d610343565b60405161013a9190610e0f565b60405180910390f35b61015d60048036038101906101589190610e2a565b61034c565b60405161016a9190610de5565b60405180910390f35b61017b61045d565b6040516101889190610e99565b60405180910390f35b6101ab60048036038101906101a69190610eb4565b610466565b6040516101b89190610e0f565b60405180910390f35b6101db60048036038101906101d69190610d8a565b6104af565b005b6101e56106b9565b6040516101f29190610ccf565b60405180910390f35b61021560048036038101906102109190610d8a565b6106f6565b6040516102229190610de5565b60405180910390f35b61024560048036038101906102409190610ee1565b61070d565b6040516102529190610e0f565b60405180910390f35b610263610794565b6040516102709190610e0f565b60405180910390f35b60606040518060400160405280600981526020017f42414d20546f6b656e0000000000000000000000000000000000000000000000815250905090565b60006102c33384846107fd565b6001905092915050565b600060016000600360009054906101000a900473ffffffffffffffffffffffffffffffffffffffff1673ffffffffffffffffffffffffffffffffffffffff1673ffffffffffffffffffffffffffffffffffffffff1681526020019081526020016000205460005461033e9190610f50565b905090565b60008054905090565b600080600260008673ffffffffffffffffffffffffffffffffffffffff1673ffffffffffffffffffffffffffffffffffffffff16815260200190815260200160002060003373ffffffffffffffffffffffffffffffffffffffff1673ffffffffffffffffffffffffffffffffffffffff1681526020019081526020016000205490507fffffffffffffffffffffffffffffffffffffffffffffffffffffffffffffffff81146104465782811015610438576040517f08c379a000000000000000000000000000000000000000000000000000000000815260040161042f90610ff6565b60405180910390fd5b61044585338584036107fd565b5b6104518585856109c8565b60019150509392505050565b60006012905090565b6000600160008373ffffffffffffffffffffffffffffffffffffffff1673ffffffffffffffffffffffffffffffffffffffff168152602001908152602001600020549050919050565b600360009054906101000a900473ffffffffffffffffffffffffffffffffffffffff1673ffffffffffffffffffffffffffffffffffffffff163373ffffffffffffffffffffffffffffffffffffffff161461053f576040517f08c379a000000000000000000000000000000000000000000000000000000000815260040161053690611088565b60405180910390fd5b80600160008473ffffffffffffffffffffffffffffffffffffffff1673ffffffffffffffffffffffffffffffffffffffff1681526020019081526020016000205410156105c1576040517f08c379a00000000000000000000000000000000000000000000000000000000081526004016105b8906110f4565b60405180910390fd5b80600160008473ffffffffffffffffffffffffffffffffffffffff1673ffffffffffffffffffffffffffffffffffffffff1681526020019081526020016000205461060c9190610f50565b600160008473ffffffffffffffffffffffffffffffffffffffff1673ffffffffffffffffffffffffffffffffffffffff16815260200190815260200160002081905550600073ffffffffffffffffffffffffffffffffffffffff168273ffffffffffffffffffffffffffffffffffffffff167fddf252ad1be2c89b69c2b068fc378daa952ba7f163c4a11628f55a4df523b3ef836040516106ad9190610e0f565b60405180910390a35050565b60606040518060400160405280600381526020017f42414d0000000000000000000000000000000000000000000000000000000000815250905090565b60006107033384846109c8565b6001905092915050565b6000600260008473ffffffffffffffffffffffffffffffffffffffff1673ffffffffffffffffffffffffffffffffffffffff16815260200190815260200160002060008373ffffffffffffffffffffffffffffffffffffffff1673ffffffffffffffffffffffffffffffffffffffff16815260200190815260200160002054905092915050565b600060016000600360009054906101000a900473ffffffffffffffffffffffffffffffffffffffff1673ffffffffffffffffffffffffffffffffffffffff1673ffffffffffffffffffffffffffffffffffffffff16815260200190815260200160002054905090565b600073ffffffffffffffffffffffffffffffffffffffff168373ffffffffffffffffffffffffffffffffffffffff16141561086d576040517f08c379a000000000000000000000000000000000000000000000000000000000815260040161086490611160565b60405180910390fd5b600073ffffffffffffffffffffffffffffffffffffffff168273ffffffffffffffffffffffffffffffffffffffff1614156108dd576040517f08c379a00000000000000000000000000000000000000000000000000000000081526004016108d4906111cc565b60405180910390fd5b80600260008573ffffffffffffffffffffffffffffffffffffffff1673ffffffffffffffffffffffffffffffffffffffff16815260200190815260200160002060008473ffffffffffffffffffffffffffffffffffffffff1673ffffffffffffffffffffffffffffffffffffffff168152602001908152602001600020819055508173ffffffffffffffffffffffffffffffffffffffff168373ffffffffffffffffffffffffffffffffffffffff167f8c5be1e5ebec7d5bd14f71427d1e84f3dd0314c0f7b2291e5b200ac8c7c3b925836040516109bb9190610e0f565b60405180910390a3505050565b600073ffffffffffffffffffffffffffffffffffffffff168373ffffffffffffffffffffffffffffffffffffffff161415610a38576040517f08c379a0000000000000000000000000000000000000000000000000000000008152600401610a2f90611238565b60405180910390fd5b600073ffffffffffffffffffffffffffffffffffffffff168273ffffffffffffffffffffffffffffffffffffffff161415610aa8576040517f08c379a0000000000000000000000000000000000000000000000000000000008152600401610a9f906112a4565b60405180910390fd5b6000600160008573ffffffffffffffffffffffffffffffffffffffff1673ffffffffffffffffffffffffffffffffffffffff16815260200190815260200160002054905081811015610b2f576040517f08c379a0000000000000000000000000000000000000000000000000000000008152600401610b2690611336565b60405180910390fd5b818103600160008673ffffffffffffffffffffffffffffffffffffffff1673ffffffffffffffffffffffffffffffffffffffff1681526020019081526020016000208190555081600160008573ffffffffffffffffffffffffffffffffffffffff1673ffffffffffffffffffffffffffffffffffffffff1681526020019081526020016000206000828254610bc49190611356565b925050819055508273ffffffffffffffffffffffffffffffffffffffff168473ffffffffffffffffffffffffffffffffffffffff167fddf252ad1be2c89b69c2b068fc378daa952ba7f163c4a11628f55a4df523b3ef84604051610c289190610e0f565b60405180910390a350505050565b600081519050919050565b600082825260208201905092915050565b60005b83811015610c70578082015181840152602081019050610c55565b83811115610c7f576000848401525b50505050565b6000601f19601f8301169050919050565b6000610ca182610c36565b610cab8185610c41565b9350610cbb818560208601610c52565b610cc481610c85565b840191505092915050565b60006020820190508181036000830152610ce98184610c96565b905092915050565b600080fd5b600073ffffffffffffffffffffffffffffffffffffffff82169050919050565b6000610d2182610cf6565b9050919050565b610d3181610d16565b8114610d3c57600080fd5b50565b600081359050610d4e81610d28565b92915050565b6000819050919050565b610d6781610d54565b8114610d7257600080fd5b50565b600081359050610d8481610d5e565b92915050565b60008060408385031215610da157610da0610cf1565b5b6000610daf85828601610d3f565b9250506020610dc085828601610d75565b9150509250929050565b60008115159050919050565b610ddf81610dca565b82525050565b6000602082019050610dfa6000830184610dd6565b92915050565b610e0981610d54565b82525050565b6000602082019050610e246000830184610e00565b92915050565b600080600060608486031215610e4357610e42610cf1565b5b6000610e5186828701610d3f565b9350506020610e6286828701610d3f565b9250506040610e7386828701610d75565b9150509250925092565b600060ff82169050919050565b610e9381610e7d565b82525050565b6000602082019050610eae6000830184610e8a565b92915050565b600060208284031215610eca57610ec9610cf1565b5b6000610ed884828501610d3f565b91505092915050565b60008060408385031215610ef857610ef7610cf1565b5b6000610f0685828601610d3f565b9250506020610f1785828601610d3f565b9150509250929050565b7f4e487b7100000000000000000000000000000000000000000000000000000000600052601160045260246000fd5b6000610f5b82610d54565b9150610f6683610d54565b925082821015610f7957610f78610f21565b5b828203905092915050565b7f5472616e7366657220616d6f756e74206578636565647320616c6c6f77616e6360008201527f6500000000000000000000000000000000000000000000000000000000000000602082015250565b6000610fe0602183610c41565b9150610feb82610f84565b604082019050919050565b6000602082019050818103600083015261100f81610fd3565b9050919050565b7f596f75206d75737420626520746865206f776e6572206f66207468697320746f60008201527f6b656e20746f206275726e20746f6b656e732e00000000000000000000000000602082015250565b6000611072603383610c41565b915061107d82611016565b604082019050919050565b600060208201905081810360008301526110a181611065565b9050919050565b7f596f7520646f206e6f74206861766520656e6f75676820746f6b656e732e0000600082015250565b60006110de601e83610c41565b91506110e9826110a8565b602082019050919050565b6000602082019050818103600083015261110d816110d1565b9050919050565b7f417070726f76652066726f6d20746865207a65726f2061646472657373000000600082015250565b600061114a601d83610c41565b915061115582611114565b602082019050919050565b600060208201905081810360008301526111798161113d565b9050919050565b7f417070726f766520746f20746865207a65726f20616464726573730000000000600082015250565b60006111b6601b83610c41565b91506111c182611180565b602082019050919050565b600060208201905081810360008301526111e5816111a9565b9050919050565b7f5472616e736665722066726f6d20746865207a65726f20616464726573730000600082015250565b6000611222601e83610c41565b915061122d826111ec565b602082019050919050565b6000602082019050818103600083015261125181611215565b9050919050565b7f5472616e7366657220746f20746865207a65726f206164647265737300000000600082015250565b600061128e601c83610c41565b915061129982611258565b602082019050919050565b600060208201905081810360008301526112bd81611281565b9050919050565b7f5472616e7366657220616d6f756e742065786365656473206163636f756e742060008201527f62616c616e636500000000000000000000000000000000000000000000000000602082015250565b6000611320602783610c41565b915061132b826112c4565b604082019050919050565b6000602082019050818103600083015261134f81611313565b9050919050565b600061136182610d54565b915061136c83610d54565b9250827fffffffffffffffffffffffffffffffffffffffffffffffffffffffffffffffff038211156113a1576113a0610f21565b5b82820190509291505056fea2646970667358221220c7f797249de02caed29c45fa9480ce618638df47747361e106f21c7d6c8d137c64736f6c634300080b0033",
  "immutableReferences": {},
  "source": "// SPDX-License-Identifier: MIT\n\npragma solidity ^0.8.0;\n\nimport \"./ERC20Interface.sol\";\n\ncontract BAMToken is ERC20Interface {\n    string private constant _name = \"BAM Token\";\n    string private constant _symbol = \"BAM\";\n    uint8 private constant _decimals = 18;\n    uint256 private _totalSupply = 1000000000;\n    mapping(address => uint256) private _balances;\n    mapping(address => mapping(address => uint256)) private _allowances;\n    address private deployer;\n\n    constructor(uint256 _initialSupply) {\n        _totalSupply = _initialSupply;\n        // assign all tokens to deployer\n        _balances[msg.sender] = _initialSupply;\n        deployer = msg.sender;\n    }\n\n    function name() public view virtual override returns (string memory) {\n        return _name;\n    }\n\n    function symbol() public view virtual override returns (string memory) {\n        return _symbol;\n    }\n\n    function decimals() public view virtual override returns (uint8) {\n        return _decimals;\n    }\n\n    function totalSupply() public view virtual override returns (uint256) {\n        return _totalSupply;\n    }\n\n    function balanceOf(address account)\n        public\n        view\n        virtual\n        override\n        returns (uint256)\n    {\n        return _balances[account];\n    }\n\n    // the recipient cannot be the zero address\n    function transfer(address recipient, uint256 amount)\n        public\n        virtual\n        override\n        returns (bool)\n    {\n        _transfer(msg.sender, recipient, amount);\n        return true;\n    }\n\n    function allowance(address owner, address spender)\n        public\n        view\n        virtual\n        override\n        returns (uint256)\n    {\n        return _allowances[owner][spender];\n    }\n\n    // the spender cannot be the zero address\n    function approve(address spender, uint256 amount)\n        public\n        virtual\n        override\n        returns (bool)\n    {\n        _approve(msg.sender, spender, amount);\n        return true;\n    }\n\n    // the function may emit two events: Transfer and Approval\n    function transferFrom(\n        address sender,\n        address recipient,\n        uint256 amount\n    ) public virtual override returns (bool) {\n        uint256 currentAllowance = _allowances[sender][msg.sender];\n        if (currentAllowance != type(uint256).max) {\n            require(\n                currentAllowance >= amount,\n                \"Transfer amount exceeds allowance\"\n            );\n            unchecked {\n                _approve(sender, msg.sender, currentAllowance - amount);\n            }\n        }\n\n        _transfer(sender, recipient, amount);\n\n        return true;\n    }\n\n    // moves amount of tokens from sender to recipient\n    //\n    // the sender and recipient cannot be the zero address\n    function _transfer(\n        address sender,\n        address recipient,\n        uint256 amount\n    ) internal virtual {\n        require(sender != address(0), \"Transfer from the zero address\");\n        require(recipient != address(0), \"Transfer to the zero address\");\n\n        uint256 senderBalance = _balances[sender];\n        require(\n            senderBalance >= amount,\n            \"Transfer amount exceeds account balance\"\n        );\n        unchecked {\n            _balances[sender] = senderBalance - amount;\n        }\n        _balances[recipient] += amount;\n\n        emit Transfer(sender, recipient, amount);\n    }\n\n    // sets the amount as the allowance of owner's tokens for spender\n    //\n    // the owner and spender cannot be the zero address\n    function _approve(\n        address owner,\n        address spender,\n        uint256 amount\n    ) internal virtual {\n        require(owner != address(0), \"Approve from the zero address\");\n        require(spender != address(0), \"Approve to the zero address\");\n\n        _allowances[owner][spender] = amount;\n        emit Approval(owner, spender, amount);\n    }\n\n    function getInReserve() public view returns(uint256) {\n        return _balances[deployer];\n    }\n\n    function getInCirculation() public view returns(uint256) {\n        return _totalSupply - _balances[deployer];\n    }\n\n    function burnFrom(address burner, uint amount) public {\n            // Only the deployer can burn tokens\n            require(msg.sender == deployer, \"You must be the owner of this token to burn tokens.\");\n            require(_balances[burner] >= amount, \"You do not have enough tokens.\");\n\n            _balances[burner] = _balances[burner] - amount;\n\n            emit Transfer(burner, address(0), amount);\n    }\n\n\n\n}\n",
  "sourcePath": "/Users/josephhansbouassaf/Desktop/BAM-projects/dev-project-2022/dev-arcade/backend/contracts/token/BAMToken.sol",
  "compiler": {
    "name": "solc",
    "version": "0.8.11+commit.d7f03943.Emscripten.clang"
  },
  "schemaVersion": "3.4.4",
  "updatedAt": "2022-05-07T19:03:46.422Z",
  "devdoc": {
    "kind": "dev",
    "methods": {},
    "version": 1
  },
  "userdoc": {
    "kind": "user",
    "methods": {},
    "version": 1
  }
}