{
  "contractName": "DiceRoll",
  "abi": [
    {
      "inputs": [
        {
          "internalType": "address",
          "name": "_player",
          "type": "address"
        },
        {
          "internalType": "address",
          "name": "_arcade",
          "type": "address"
        },
        {
          "internalType": "address",
          "name": "_tokenAddress",
          "type": "address"
        }
      ],
      "stateMutability": "nonpayable",
      "type": "constructor"
    },
    {
      "anonymous": false,
      "inputs": [
        {
          "indexed": false,
          "internalType": "address",
          "name": "_player",
          "type": "address"
        },
        {
          "indexed": false,
          "internalType": "uint256",
          "name": "_pick",
          "type": "uint256"
        },
        {
          "indexed": false,
          "internalType": "uint256",
          "name": "_outcome",
          "type": "uint256"
        },
        {
          "indexed": false,
          "internalType": "uint256",
          "name": "_betAmount",
          "type": "uint256"
        },
        {
          "indexed": false,
          "internalType": "int256",
          "name": "_updatedScore",
          "type": "int256"
        },
        {
          "indexed": false,
          "internalType": "uint256",
          "name": "_updatedWins",
          "type": "uint256"
        }
      ],
      "name": "Bet",
      "type": "event"
    },
    {
      "inputs": [],
      "name": "BAM",
      "outputs": [
        {
          "internalType": "contract BAMToken",
          "name": "",
          "type": "address"
        }
      ],
      "stateMutability": "view",
      "type": "function"
    },
    {
      "inputs": [],
      "name": "player",
      "outputs": [
        {
          "internalType": "address",
          "name": "",
          "type": "address"
        }
      ],
      "stateMutability": "view",
      "type": "function"
    },
    {
      "inputs": [],
      "name": "score",
      "outputs": [
        {
          "internalType": "int256",
          "name": "",
          "type": "int256"
        }
      ],
      "stateMutability": "view",
      "type": "function"
    },
    {
      "inputs": [],
      "name": "wins",
      "outputs": [
        {
          "internalType": "uint256",
          "name": "",
          "type": "uint256"
        }
      ],
      "stateMutability": "view",
      "type": "function"
    },
    {
      "inputs": [
        {
          "internalType": "uint256",
          "name": "_betAmount",
          "type": "uint256"
        },
        {
          "internalType": "uint256",
          "name": "_pick",
          "type": "uint256"
        }
      ],
      "name": "bet",
      "outputs": [
        {
          "internalType": "bool",
          "name": "_success",
          "type": "bool"
        }
      ],
      "stateMutability": "nonpayable",
      "type": "function"
    }
  ],
  "bytecode": "0x60806040523480156200001157600080fd5b50604051620010f6380380620010f683398181016040528101906200003791906200017c565b826000806101000a81548173ffffffffffffffffffffffffffffffffffffffff021916908373ffffffffffffffffffffffffffffffffffffffff16021790555081600160006101000a81548173ffffffffffffffffffffffffffffffffffffffff021916908373ffffffffffffffffffffffffffffffffffffffff1602179055506000600281905550600060038190555080600460006101000a81548173ffffffffffffffffffffffffffffffffffffffff021916908373ffffffffffffffffffffffffffffffffffffffff160217905550505050620001d8565b600080fd5b600073ffffffffffffffffffffffffffffffffffffffff82169050919050565b6000620001448262000117565b9050919050565b620001568162000137565b81146200016257600080fd5b50565b60008151905062000176816200014b565b92915050565b60008060006060848603121562000198576200019762000112565b5b6000620001a88682870162000165565b9350506020620001bb8682870162000165565b9250506040620001ce8682870162000165565b9150509250925092565b610f0e80620001e86000396000f3fe608060405234801561001057600080fd5b50600436106100575760003560e01c806324de908d1461005c57806348db5f891461007a57806369957e58146100985780636ffcc719146100b6578063efedc669146100e6575b600080fd5b610064610104565b6040516100719190610684565b60405180910390f35b61008261010a565b60405161008f91906106e0565b60405180910390f35b6100a061012e565b6040516100ad919061075a565b60405180910390f35b6100d060048036038101906100cb91906107a6565b610154565b6040516100dd9190610801565b60405180910390f35b6100ee6105f3565b6040516100fb9190610835565b60405180910390f35b60035481565b60008054906101000a900473ffffffffffffffffffffffffffffffffffffffff1681565b600460009054906101000a900473ffffffffffffffffffffffffffffffffffffffff1681565b60008060009054906101000a900473ffffffffffffffffffffffffffffffffffffffff1673ffffffffffffffffffffffffffffffffffffffff163373ffffffffffffffffffffffffffffffffffffffff16146101e5576040517f08c379a00000000000000000000000000000000000000000000000000000000081526004016101dc906108d3565b60405180910390fd5b81600181101580156101f8575060068111155b610237576040517f08c379a000000000000000000000000000000000000000000000000000000000815260040161022e9061093f565b60405180910390fd5b83600181101561027c576040517f08c379a0000000000000000000000000000000000000000000000000000000008152600401610273906109ab565b60405180910390fd5b600f8111156102c0576040517f08c379a00000000000000000000000000000000000000000000000000000000081526004016102b790610a17565b60405180910390fd5b6000600460009054906101000a900473ffffffffffffffffffffffffffffffffffffffff1673ffffffffffffffffffffffffffffffffffffffff166370a08231600160009054906101000a900473ffffffffffffffffffffffffffffffffffffffff166040518263ffffffff1660e01b815260040161033f91906106e0565b602060405180830381865afa15801561035c573d6000803e3d6000fd5b505050506040513d601f19601f820116820180604052508101906103809190610a4c565b9050808611156103c5576040517f08c379a00000000000000000000000000000000000000000000000000000000081526004016103bc90610aeb565b60405180910390fd5b600460009054906101000a900473ffffffffffffffffffffffffffffffffffffffff1673ffffffffffffffffffffffffffffffffffffffff166323b872dd33600160009054906101000a900473ffffffffffffffffffffffffffffffffffffffff16896040518463ffffffff1660e01b815260040161044693929190610b0b565b6020604051808303816000875af1158015610465573d6000803e3d6000fd5b505050506040513d601f19601f820116820180604052508101906104899190610b6e565b5060006104946105f9565b905080861415610566576000600160009054906101000a900473ffffffffffffffffffffffffffffffffffffffff1690508073ffffffffffffffffffffffffffffffffffffffff166313b44c7389336040518363ffffffff1660e01b8152600401610500929190610b9b565b600060405180830381600087803b15801561051a57600080fd5b505af115801561052e573d6000803e3d6000fd5b5050505060016003546105419190610bf3565b60038190555087600260008282546105599190610c49565b9250508190555050610580565b86600260008282546105789190610cdd565b925050819055505b7fd5676d95f26feb656a624882fbee761a6260087ea257f168bdb735ca3d2af0c260008054906101000a900473ffffffffffffffffffffffffffffffffffffffff1687838a6002546003546040516105dd96959493929190610d71565b60405180910390a1600194505050505092915050565b60025481565b600080444260008054906101000a900473ffffffffffffffffffffffffffffffffffffffff1660405160200161063193929190610e3b565b6040516020818303038152906040528051906020012060001c9050600160068261065b9190610ea7565b6106659190610bf3565b91505090565b6000819050919050565b61067e8161066b565b82525050565b60006020820190506106996000830184610675565b92915050565b600073ffffffffffffffffffffffffffffffffffffffff82169050919050565b60006106ca8261069f565b9050919050565b6106da816106bf565b82525050565b60006020820190506106f560008301846106d1565b92915050565b6000819050919050565b600061072061071b6107168461069f565b6106fb565b61069f565b9050919050565b600061073282610705565b9050919050565b600061074482610727565b9050919050565b61075481610739565b82525050565b600060208201905061076f600083018461074b565b92915050565b600080fd5b6107838161066b565b811461078e57600080fd5b50565b6000813590506107a08161077a565b92915050565b600080604083850312156107bd576107bc610775565b5b60006107cb85828601610791565b92505060206107dc85828601610791565b9150509250929050565b60008115159050919050565b6107fb816107e6565b82525050565b600060208201905061081660008301846107f2565b92915050565b6000819050919050565b61082f8161081c565b82525050565b600060208201905061084a6000830184610826565b92915050565b600082825260208201905092915050565b7f6f6e6c792074686520706c617965722063616e2063616c6c207468697320667560008201527f6e6374696f6e0000000000000000000000000000000000000000000000000000602082015250565b60006108bd602683610850565b91506108c882610861565b604082019050919050565b600060208201905081810360008301526108ec816108b0565b9050919050565b7f7069636b6564206e756d62657220697320696e76616c69640000000000000000600082015250565b6000610929601883610850565b9150610934826108f3565b602082019050919050565b600060208201905081810360008301526109588161091c565b9050919050565b7f4d696e696d756d2062657420697320312042414d000000000000000000000000600082015250565b6000610995601483610850565b91506109a08261095f565b602082019050919050565b600060208201905081810360008301526109c481610988565b9050919050565b7f4d6178696d756d206265742069732031352042414d0000000000000000000000600082015250565b6000610a01601583610850565b9150610a0c826109cb565b602082019050919050565b60006020820190508181036000830152610a30816109f4565b9050919050565b600081519050610a468161077a565b92915050565b600060208284031215610a6257610a61610775565b5b6000610a7084828501610a37565b91505092915050565b7f536f7272792c206e6f7420656e6f75676820746f6b656e7320696e207468652060008201527f7265736572766500000000000000000000000000000000000000000000000000602082015250565b6000610ad5602783610850565b9150610ae082610a79565b604082019050919050565b60006020820190508181036000830152610b0481610ac8565b9050919050565b6000606082019050610b2060008301866106d1565b610b2d60208301856106d1565b610b3a6040830184610675565b949350505050565b610b4b816107e6565b8114610b5657600080fd5b50565b600081519050610b6881610b42565b92915050565b600060208284031215610b8457610b83610775565b5b6000610b9284828501610b59565b91505092915050565b6000604082019050610bb06000830185610675565b610bbd60208301846106d1565b9392505050565b7f4e487b7100000000000000000000000000000000000000000000000000000000600052601160045260246000fd5b6000610bfe8261066b565b9150610c098361066b565b9250827fffffffffffffffffffffffffffffffffffffffffffffffffffffffffffffffff03821115610c3e57610c3d610bc4565b5b828201905092915050565b6000610c548261081c565b9150610c5f8361081c565b9250817f7fffffffffffffffffffffffffffffffffffffffffffffffffffffffffffffff03831360008312151615610c9a57610c99610bc4565b5b817f8000000000000000000000000000000000000000000000000000000000000000038312600083121615610cd257610cd1610bc4565b5b828201905092915050565b6000610ce88261081c565b9150610cf38361081c565b9250827f800000000000000000000000000000000000000000000000000000000000000001821260008412151615610d2e57610d2d610bc4565b5b827f7fffffffffffffffffffffffffffffffffffffffffffffffffffffffffffffff018213600084121615610d6657610d65610bc4565b5b828203905092915050565b600060c082019050610d8660008301896106d1565b610d936020830188610675565b610da06040830187610675565b610dad6060830186610675565b610dba6080830185610826565b610dc760a0830184610675565b979650505050505050565b6000819050919050565b610ded610de88261066b565b610dd2565b82525050565b60008160601b9050919050565b6000610e0b82610df3565b9050919050565b6000610e1d82610e00565b9050919050565b610e35610e30826106bf565b610e12565b82525050565b6000610e478286610ddc565b602082019150610e578285610ddc565b602082019150610e678284610e24565b601482019150819050949350505050565b7f4e487b7100000000000000000000000000000000000000000000000000000000600052601260045260246000fd5b6000610eb28261066b565b9150610ebd8361066b565b925082610ecd57610ecc610e78565b5b82820690509291505056fea26469706673582212208753ec09e0c11713ba0690948dda1502097849ce9210972bd737d7dbdd3e338464736f6c634300080b0033",
  "immutableReferences": {},
  "source": "// SPDX-License-Identifier: MIT\npragma solidity >=0.4.22 <0.9.0;\n\nimport \"./Arcade.sol\";\nimport \"./token/BAMToken.sol\";\n\n// add import of the tokenContract\ninterface Game {\n   // keep it here to remember to make an interface of the diceRoll methods\n}\n\n/* this contract will be created each time the player starts a new \"game room\" */\ncontract DiceRoll {\n\n    // will take up 4 storage slots \n    address public player; \n    address private arcade; \n    int256 public score; \n    uint256 public wins; \n    BAMToken public BAM;\n\n    constructor(address _player, address _arcade, address _tokenAddress) {\n        player = _player; \n        arcade = _arcade; \n        score = 0; \n        wins = 0; \n        BAM = BAMToken(_tokenAddress);\n    }\n\n    modifier playerOnly {\n         require(msg.sender == player, \"only the player can call this function\"); \n         _; \n    }\n   \n    modifier correctPick(uint256 _pick) {\n        require(_pick >= 1 && _pick <= 6, \"picked number is invalid\"); \n        _; \n    } \n    modifier betAmountInRange(uint256 _betAmount) {\n        require(_betAmount >= 1, \"Minimum bet is 1 BAM\");\n        require(_betAmount <= 15, \"Maximum bet is 15 BAM\");\n        _; \n    } \n\n    event Bet(\n        address _player,\n        uint256 _pick, \n        uint256 _outcome,\n        uint256 _betAmount, \n        int256 _updatedScore,\n        uint256 _updatedWins\n        ); \n\n    /*  this is a pseudorandom generator, its randomness is deterministic, eventually we will want to explore options that provide true randomness */\n    function rollDice() private view returns (uint256) {\n         uint256 seed = uint(keccak256(abi.encodePacked(block.difficulty, block.timestamp, player)));\n         return seed % 6 + 1; // 2 for testing purposes - replace with 6 later on\n    } \n\n    function bet(uint256 _betAmount, uint256 _pick) public playerOnly correctPick(_pick) betAmountInRange(_betAmount) returns (bool _success){ \n        uint256 arcadeBalance = BAM.balanceOf(address(arcade));\n        require(_betAmount <= arcadeBalance, \"Sorry, not enough tokens in the reserve\");\n        // player pays upfront\n        // need to approve allowance beforehand directly from BAM token contract\n        BAM.transferFrom(msg.sender, arcade, _betAmount);\n\n        uint256 _outcome = rollDice();\n        if(_pick == _outcome) { // player won\n            Arcade devArcade = Arcade(arcade); // loading arcade contract to call function\n            devArcade.distributeWins(_betAmount, msg.sender);\n            //update wins and score\n            wins = wins + 1; \n            score += int256(_betAmount);\n        } else {\n            // update score\n            score -= int256(_betAmount); \n        }\n        \n        emit Bet(player, _pick, _outcome, _betAmount , score, wins); \n\n        return true; \n    }\n\n}",
  "sourcePath": "/Users/josephhansbouassaf/Desktop/BAM-projects/dev-project-2022/dev-arcade/backend/contracts/DiceRoll.sol",
  "compiler": {
    "name": "solc",
    "version": "0.8.11+commit.d7f03943.Emscripten.clang"
  },
  "schemaVersion": "3.4.4",
  "updatedAt": "2022-05-07T19:03:46.408Z",
  "devdoc": {
    "kind": "dev",
    "methods": {},
    "version": 1
  },
  "userdoc": {
    "kind": "user",
    "methods": {},
    "version": 1
  }
}